Before 1st order- 1487561885400 -- 03:38:05.400
<20170220-03:38:05, FIX.4.4:INIT->EXEC, outgoing> (8=FIX.4.4|9=120|35=D|34=2|49=INIT|52=20170220-03:38:05.478|56=EXEC|11=MISYS1001|21=3|40=2|44=100|54=1|55=MISYS|60=20170220-03:38:05.478|10=051|)
Before 2nd order- 1487561885478 -- 03:38:05.478
<20170220-03:38:05, FIX.4.4:INIT->EXEC, outgoing> (8=FIX.4.4|9=120|35=D|34=3|49=INIT|52=20170220-03:38:05.478|56=EXEC|11=MISYS1002|21=3|40=2|44=100|54=1|55=MISYS|60=20170220-03:38:05.478|10=053|)
Before 3rd order- 1487561886445 -- 03:38:06.445
<20170220-03:38:06, FIX.4.4:INIT->EXEC, outgoing> (8=FIX.4.4|9=123|35=D|34=1004|49=INIT|52=20170220-03:38:06.445|56=EXEC|11=MISYS1003|21=3|40=2|44=100|54=1|55=MISYS|60=20170220-03:38:06.445|10=193|)
